:100000000C945D000C9485000C9485000C94850084
:100010000C9485000C9485000C9485000C9485004C
:100020000C9485000C9485000C9485000C94B70505
:100030000C9485000C9485000C9485000C9485002C
:100040000C946D050C9485000C943B050C941505DF
:100050000C9485000C9485000C9485000C9485000C
:100060000C9485000C9485000000000024002700FB
:100070002A0000000000250028002B0004040404CE
:100080000404040402020202020203030303030342
:10009000010204081020408001020408102001021F
:1000A00004081020000000080002010000030407FB
:1000B0000000000000000000780611241FBECFEFF2
:1000C000D8E0DEBFCDBF11E0A0E0B1E0EAE5F5E1A8
:1000D00002C005900D92A632B107D9F722E0A6E240
:1000E000B1E001C01D92A533B207E1F710E0CDE504
:1000F000D0E004C02197FE010E94FF07CC35D10754
:10010000C9F70E94B4060C94AB0A0C940000ECE80A
:10011000F1E0A089B18982E08C93A485B5851C9219
:10012000A685B7858FEC8C93108EA489B58986E05F
:100130008C93A289B3898C9180618C93A289B389B5
:100140008C9188608C93A289B3898C9180688C9300
:100150000288F389E02D80818F7D80830895CF927E
:10016000DF92EF92FF920F931F93CF93DF936C0177
:100170007A018B01C0E0D0E0CE15DF0589F0D8010F
:100180006D918D01D601ED91FC910190F081E02DF2
:10019000C6010995892B11F47E0102C02196ECCF8E
:1001A000C701DF91CF911F910F91FF90EF90DF90EA
:1001B000CF900895FC01918D828D981761F0828D0A
:1001C000DF01A80FB11D5D968C91928D9F5F9F738B
:1001D000928F90E008958FEF9FEF0895FC01918D2D
:1001E000828D981731F0828DE80FF11D858D90E09A
:1001F00008958FEF9FEF0895FC01918D228D892F37
:1002000090E0805C9F4F821B91098F73992708951E
:100210008CE891E00E94FC0021E0892B09F420E0A9
:10022000822F0895FC01848DDF01A80FB11DA35A10
:10023000BF4F2C91848D90E001968F739927848F06
:10024000A689B7892C93A089B1898C9180648C93FD
:10025000938D848D981306C00288F389E02D8081E8
:100260008F7D80830895EF92FF920F931F93CF931A
:10027000DF93EC0181E0888F9B8D8C8D981305C0F6
:10028000E889F989808185FD24C0F62E0B8D10E068
:100290000F5F1F4F0F731127E02E8C8DE8120CC0DB
:1002A0000FB607FCFACFE889F989808185FFF5CF81
:1002B000CE010E941201F1CF8B8DFE01E80FF11DDE
:1002C000E35AFF4FF0820B8FEA89FB8980818062BD
:1002D00007C0EE89FF896083E889F989808180649D
:1002E000808381E090E0DF91CF911F910F91FF908B
:1002F000EF900895CF93DF93EC01888D8823C9F0A8
:10030000EA89FB89808185FD05C0A889B9898C911E
:1003100086FD0FC00FB607FCF5CF808185FFF2CFB9
:10032000A889B9898C9185FFEDCFCE010E94120179
:10033000E7CFDF91CF91089580E090E0892B29F0FD
:100340000E94080181110C940000089590E0FC01C6
:10035000EC55FF4F3491FC01E057FF4F2491FC0115
:10036000E458FF4FE491EE2309F43BC0332339F105
:10037000333091F038F43130A9F0323001F584B5E2
:100380008F7D12C0373091F03830A1F03430B9F49D
:10039000809180008F7D03C0809180008F77809353
:1003A00080000DC084B58F7784BD09C08091B000F6
:1003B0008F7703C08091B0008F7D8093B000F0E014
:1003C000EE0FFF1FEE58FF4FA591B4918FB7F89431
:1003D000EC91611103C020952E2301C02E2B2C938C
:1003E0008FBF08953FB7F8948091510190915201C9
:1003F000A0915301B091540126B5A89B05C02F3F91
:1004000019F00196A11DB11D3FBFBA2FA92F982F3A
:100410008827820F911DA11DB11DBC01CD0142E0B5
:10042000660F771F881F991F4A95D1F708958F92FD
:100430009F92AF92BF92CF92DF92EF92FF926B01A9
:100440007C010E94F2014B015C01C114D104E10462
:10045000F104F1F00E94F201DC01CB018819990945
:10046000AA09BB09883E9340A105B10570F321E0BC
:10047000C21AD108E108F10888EE880E83E0981EC0
:10048000A11CB11CC114D104E104F10419F7DDCFA2
:10049000FF90EF90DF90CF90BF90AF909F908F90A4
:1004A00008952FB7F89460914D0170914E0180919D
:1004B0004F01909150012FBF08950F931F930E94F9
:1004C00051026093940170939501809396019093EB
:1004D0009701E0918C01F0918D010084F185E02D70
:1004E0008CE891E0099597FF1FC00E94510200918E
:1004F0009401109195012091960130919701DC01B2
:10050000CB01801B910BA20BB30B009190011091BA
:100510009101209192013091930180179107A207D8
:10052000B307B8F28FEF9FEF1F910F910895FF92DD
:100530000F931F93CF93DF9300D000D0CDB7DEB7DA
:100540000E945D02FC0197FD11C08D32910591F072
:10055000C0970A9778F0E0918C01F0918D010680A8
:10056000F781E02D8CE891E00995EACF60E070E03A
:10057000CB014CC020E030E0A901F12CE130F105C5
:10058000F1F0ED32F105C9F0CF01C0970A97B8F448
:10059000AAE0B0E00E94890A8F01FF0F220B330B03
:1005A000DC01CB01800F911FA21FB31F9C01AD0185
:1005B000205331094109510902C0FF24F394E0910D
:1005C0008C01F0918D010680F781E02D8CE891E09F
:1005D00029833A834B835C8309950E945D02FC0169
:1005E000C09729813A814B815C810A9738F2E130CA
:1005F000F10521F2FF2041F066277727CB01621B2E
:10060000730B840B950B02C0CA01B9010F900F90B8
:100610000F900F90DF91CF911F910F91FF90089550
:10062000CF92DF92EF92FF92CF93DF93EC01603293
:1006300082E078070CF03DC077FD06C0653B710590
:100640002CF064EB70E002C060E070E0898128E883
:1006500030E06901C81AD10887FDD394CC0CDD1CA9
:10066000CC0CDD1C0D2C000CEE08FF088A8128E55F
:1006700032E0281B310987FD3395220F331F220FEB
:10068000331FC901330FAA0BBB0B9C01AD012C1901
:100690003D094E095F09DB010E94940A24EB30E01A
:1006A00040E050E00E946A0AC20ED31EE41EF51E0E
:1006B000B60188818C3080F5998148E850E0491B6B
:1006C000510997FD5395440F551F440F551F64174B
:1006D000750784F09A8128E532E0291B310997FDDE
:1006E0003395220F331F220F331FAB012617370715
:1006F0000CF4A90142505109440F551F2FB7F8942B
:1007000090E0FC01EE0FFF1F8E0F9F1FFC01E85DC4
:10071000FE4F528341832FBFDF91CF91FF90EF9027
:10072000DF90CF900895CF93DF93DC018C918C30D4
:1007300008F06DC09B013327F901E057FF4F84910A
:10074000F901E458FF4F2491222399F030E0220F61
:10075000331FF901E859FF4FC591D491F901EE58C3
:10076000FF4F259134919FB7F894E881E82BE883F7
:100770009FBF8C91E82FF0E09F01220F331FE20F03
:10078000F31FE85DFE4F6F739081907C692B60834F
:1007900011961C92119712961C9212976CE00E946F
:1007A000F3079CE0899FB001112440E050E09A01DA
:1007B000260F371FF901EE0FFF1F2E0F3F1FF90104
:1007C000E85DFE4F908196FD16C04F5F5F4F4C3045
:1007D000510569F781110FC01092800082E080936B
:1007E00081001092850010928400B19A80916F0070
:1007F000826080936F00EC91F0E0CF01880F991F29
:10080000E80FF91FE85DFE4F8081806480838C9142
:10081000DF91CF910895FC01909127019C30A0F4C5
:1008200081E0890F809327019083892F90E0FC015C
:10083000EE0FFF1F8E0F9F1FFC01E85DFE4F88EB40
:100840009BE09283818308958FEF808308954F9278
:100850005F926F927F928F929F92AF92BF92CF9250
:10086000DF92EF92FF92CF93DF9300D01F92CDB72C
:10087000DEB769837A838B8349015A0120E030E037
:10088000A901C501B4010E94240987FDBAC020E076
:1008900030E048EC52E4C501B4010E941A09181670
:1008A0000CF4AFC08B8128E532E06901C81AD10889
:1008B00087FDD394CC0CDD1CCC0CDD1C0D2C000C66
:1008C000EE08FF088A8128E830E02901481A51081B
:1008D00087FD5394440C551C440C551C052C000CEE
:1008E0006608770889818F3FC1F090E0FC01EE0F28
:1008F000FF1F8E0F9F1FFC01E85DFE4F418152815B
:1009000033E0440F551F3A95E1F764E0569547955B
:100910006A95E1F74E5F5F4F02C040E050E04F5FE5
:100920005F4F052E000C660B770B9A01AB01241963
:10093000350946095709A4EBB0E00E94890AA701CE
:10094000960124193509460957090E946A0AB90116
:10095000330F880B990B0E942B096B017C0120E05F
:1009600030E048EC52E4C501B4010E94720820E076
:1009700030E044E353E40E948A094B015C01A50185
:100980009401C701B6010E94240987FF19C0C7015D
:10099000B6010E94E408CE0101960E9410036EE1A8
:1009A00070E080E090E00E94170220E030E040E834
:1009B0005FE3C701B6010E9406086B017C01DFCF2F
:1009C000A5019401C701B6010E941A091816CCF4BA
:1009D000C701B6010E94E408CE0101960E941003EF
:1009E0006EE170E080E090E00E94170220E030E0CD
:1009F00040E85FE3C701B6010E9405086B017C0176
:100A0000DFCF0F900F900F90DF91CF91FF90EF907D
:100A1000DF90CF90BF90AF909F908F907F906F901E
:100A20005F904F9008950E941F091F920F920FB67A
:100A30000F9211242F933F934F935F936F937F9364
:100A40008F939F93AF93BF93EF93FF938CE891E0C5
:100A50000E941201FF91EF91BF91AF919F918F91F1
:100A60007F916F915F914F913F912F910F900FBEAA
:100A70000F901F9018951F920F920FB60F9211248E
:100A80002F938F939F93EF93FF93E0919C01F091AD
:100A90009D018081E091A201F091A30182FD12C02D
:100AA00090818091A5018F5F8F732091A60182179D
:100AB00051F0E091A501F0E0E457FE4F958F80934F
:100AC000A50101C08081FF91EF919F918F912F919E
:100AD0000F900FBE0F901F9018951F920F920FB698
:100AE0000F9211242F933F938F939F93AF93BF93B4
:100AF00080914D0190914E01A0914F01B091500114
:100B000030914C0123E0230F2D3720F40196A11DD5
:100B1000B11D05C026E8230F0296A11DB11D20932B
:100B20004C0180934D0190934E01A0934F01B093DF
:100B300050018091510190915201A0915301B091C7
:100B400054010196A11DB11D809351019093520152
:100B5000A0935301B0935401BF91AF919F918F9196
:100B60003F912F910F900FBE0F901F9018951F92DD
:100B70000F920FB60F9211242F933F934F935F93D1
:100B80006F937F938F939F93AF93BF93EF93FF9355
:100B90008091260187FF05C0109285001092840085
:100BA0001BC020912601022E000C330B80912701DF
:100BB00090E02817390784F480912601082E000C54
:100BC000990BFC01EE0FFF1F8E0F9F1FFC01E85DCC
:100BD000FE4F808186FD15C0809126018F5F809336
:100BE000260120912601022E000C330B8091270153
:100BF00090E028173907C4F4809126018C3064F105
:100C000013C080912601082E000C990BFC01EE0FF9
:100C1000FF1F8E0F9F1FFC01E85DFE4F808160E08B
:100C20008F730E94A601D8CF809184009091850097
:100C3000049680349C4918F480E49CE905C08091B6
:100C40008400909185000496909389008093880099
:100C50008FEF809326013BC0209184003091850066
:100C600080912601082E000C990BFC01EE0FFF1F4E
:100C70008E0F9F1FFC01E85DFE4F81819281820FE4
:100C8000931F909389008093880080912601082EFD
:100C9000000C990BFC01EE0FFF1F8E0F9F1FFC0134
:100CA000E85DFE4F808186FF12C080912601082EEC
:100CB000000C990BFC01EE0FFF1F8E0F9F1FFC0114
:100CC000E85DFE4F808161E08F730E94A601FF9175
:100CD000EF91BF91AF919F918F917F916F915F91B4
:100CE0004F913F912F910F900FBE0F901F9018952D
:100CF000ECE8F1E01382128288EE93E0A0E0B0E02D
:100D000084839583A683B78388E091E09183808371
:100D100085EC90E09587848784EC90E097878687C0
:100D200080EC90E0918B808B81EC90E0938B828BB8
:100D300082EC90E0958B848B86EC90E0978B868B91
:100D4000118E128E138E148E82E392E00E940B0499
:100D50008FE292E00E940B048CE292E00E940B046E
:100D600089E292E00C940B04789484B5826084BD8F
:100D700084B5816084BD85B5826085BD85B581609F
:100D800085BD80916E00816080936E00109281001D
:100D900080918100826080938100809181008160D8
:100DA0008093810080918000816080938000809199
:100DB000B10084608093B1008091B0008160809325
:100DC000B00080917A00846080937A0080917A00EC
:100DD000826080937A0080917A00816080937A00AB
:100DE00080917A00806880937A001092C1001092FE
:100DF00088011092890110928A0110928B01109241
:100E0000560110925701109258011092590160ED4D
:100E100077E080E090E00E9417028CE891E09093E8
:100E20008701809386010E9487000E9451020091F1
:100E30005601109157012091580130915901DC0160
:100E4000CB01801B910BA20BB30B8197A105B105C0
:100E500038F463E070E080E090E00E941702E5CF94
:100E60000E9451026093560170935701809358017C
:100E7000909359018091860190918701DC01ED9159
:100E8000FC910280F381E02D41E150E064E171E0EA
:100E900009956AE070E080E090E00E94170281E02E
:100EA00080935A010E9487008AE090E0A0E0B0E0C1
:100EB0008093900190939101A0939201B09393013C
:100EC00068E070E082E392E00E94930369E070E0E2
:100ED0008FE292E00E94930360912F0270913002A2
:100EE0008091310220E030E040EA52E40E94270481
:100EF0006AE070E08CE292E00E9493036BE070E0A5
:100F000089E292E00E9493038CE891E00E94FC0049
:100F1000181619060CF064C08CE891E00E94EE00EF
:100F20008234910591F48CE891E00E94DA000E94ED
:100F300097020E942B099B01AC01609132027091D3
:100F40003302809134020E9427048CE891E00E94D1
:100F5000EE008734910591F48CE891E00E94DA006C
:100F60000E9497020E942B099B01AC0160912F0205
:100F700070913002809131020E9427048CE891E048
:100F80000E94EE008134910591F48CE891E00E947A
:100F9000DA000E9497020E942B099B01AC0160912C
:100FA0002C0270912D0280912E020E9427048CE861
:100FB00091E00E94EE008835910591F48CE891E073
:100FC0000E94DA000E9497020E942B099B01AC014B
:100FD0006091290270912A0280912B020E942704BD
:100FE0000E949C0191CF991B79E004C0991F96172C
:100FF00008F0961B881F7A95C9F780950895EE0F23
:10100000FF1F0590F491E02D09945058BB27AA27A3
:101010000E941D080C940E0A0E94000A38F00E94DB
:10102000070A20F039F49F3F19F426F40C94FD09C7
:101030000EF4E095E7FB0C94F709E92F0E941F0AD4
:1010400058F3BA17620773078407950720F079F4FD
:10105000A6F50C94410A0EF4E0950B2EBA2FA02DA4
:101060000B01B90190010C01CA01A0011124FF2755
:10107000591B99F0593F50F4503E68F11A16F04050
:10108000A22F232F342F4427585FF3CF469537954F
:101090002795A795F0405395C9F77EF41F16BA0B14
:1010A000620B730B840BBAF09150A1F0FF0FBB1FC2
:1010B000661F771F881FC2F70EC0BA0F621F731F0B
:1010C000841F48F4879577956795B795F7959E3F68
:1010D00008F0B0CF9395880F08F09927EE0F9795F9
:1010E000879508950E9486080C940E0A0E94070AAC
:1010F00058F00E94000A40F029F45F3F29F00C9458
:10110000F70951110C94420A0C94FD090E941F0A20
:1011100068F39923B1F3552391F3951B550BBB2726
:10112000AA2762177307840738F09F5F5F4F220F6B
:10113000331F441FAA1FA9F335D00E2E3AF0E0E862
:1011400032D091505040E695001CCAF72BD0FE2FAC
:1011500029D0660F771F881FBB1F26173707480740
:10116000AB07B0E809F0BB0B802DBF01FF279358F8
:101170005F4F3AF09E3F510578F00C94F7090C94BC
:10118000420A5F3FE4F3983ED4F3869577956795DE
:10119000B795F7959F5FC9F7880F911D969587952D
:1011A00097F90895E1E0660F771F881FBB1F62174C
:1011B00073078407BA0720F0621B730B840BBA0B0A
:1011C000EE1F88F7E09508950E94EB086894B1112E
:1011D0000C94420A08950E94270A88F09F5798F0BD
:1011E000B92F9927B751B0F0E1F0660F771F881F2C
:1011F000991F1AF0BA95C9F714C0B13091F00E9446
:10120000410AB1E008950C94410A672F782F88278E
:10121000B85F39F0B93FCCF3869577956795B3956C
:10122000D9F73EF490958095709561957F4F8F4FDB
:101230009F4F08950E94660908F48FEF089581E09A
:1012400090E0F8940C94AB0A0E94660908F481E0DF
:101250000895E89409C097FB3EF4909580957095A9
:1012600061957F4F8F4F9F4F9923A9F0F92F96E9F2
:10127000BB279395F695879577956795B795F11167
:10128000F8CFFAF4BB0F11F460FF1BC06F5F7F4F04
:101290008F4F9F4F16C0882311F096E911C0772316
:1012A00021F09EE8872F762F05C0662371F096E81F
:1012B000862F70E060E02AF09A95660F771F881FEE
:1012C000DAF7880F9695879597F90895990F000892
:1012D000550FAA0BE0E8FEEF16161706E807F90708
:1012E000C0F012161306E407F50798F0621B730BA3
:1012F000840B950B39F40A2661F0232B242B252B24
:1013000021F408950A2609F4A140A6958FEF811DC6
:10131000811D08950E949D090C940E0A0E94000AE6
:1013200038F00E94070A20F0952311F00C94F70979
:101330000C94FD0911240C94420A0E941F0A70F3B8
:10134000959FC1F3950F50E0551F629FF001729F6A
:10135000BB27F00DB11D639FAA27F00DB11DAA1F79
:10136000649F6627B00DA11D661F829F2227B00DC6
:10137000A11D621F739FB00DA11D621F839FA00D51
:10138000611D221F749F3327A00D611D231F849FA1
:10139000600D211D822F762F6A2F11249F575040F8
:1013A0009AF0F1F088234AF0EE0FFF1FBB1F661F73
:1013B000771F881F91505040A9F79E3F510580F03C
:1013C0000C94F7090C94420A5F3FE4F3983ED4F37F
:1013D000869577956795B795F795E7959F5FC1F7E0
:1013E000FE2B880F911D9695879597F9089597F98B
:1013F0009F6780E870E060E008959FEF80EC0895BB
:1014000000240A94161617061806090608950024E3
:101410000A9412161306140605060895092E03945D
:10142000000C11F4882352F0BB0F40F4BF2B11F4D1
:1014300060FF04C06F5F7F4F8F4F9F4F089557FD30
:101440009058440F551F59F05F3F71F04795880F32
:1014500097FB991F61F09F3F79F0879508951216C9
:1014600013061406551FF2CF4695F1DF08C0161675
:1014700017061806991FF1CF869571056105089426
:101480000895E894BB2766277727CB0197F908953D
:10149000A1E21A2EAA1BBB1BFD010DC0AA1FBB1F78
:1014A000EE1FFF1FA217B307E407F50720F0A21BEA
:1014B000B30BE40BF50B661F771F881F991F1A9457
:1014C00069F760957095809590959B01AC01BD0181
:1014D000CF010895052E97FB1EF400940E94810A07
:1014E00057FD07D00E94480A07FC03D04EF40C9425
:1014F000810A50954095309521953F4F4F4F5F4F52
:10150000089590958095709561957F4F8F4F9F4F6F
:1015100008950E949C0AA59F900DB49F900DA49FD2
:10152000800D911D11240895B7FF0C94890A0E9423
:10153000890A821B930B0895A29FB001B39FC0013B
:10154000A39F700D811D1124911DB29F700D811DEF
:0A1550001124911D0895F894FFCFB7
:10155A0001000000000000003301AF00FC00DA00C7
:10156A00EE007A01564D4450565F317C315F564D3C
:06157A004450560D0A006A
:00000001FF
