:100000000C945D000C9485000C9485000C94850084
:100010000C9485000C9485000C9485000C9485004C
:100020000C9485000C9485000C9485000C94FB03C3
:100030000C9485000C9485000C9485000C9485002C
:100040000C94B1030C9485000C947F030C94590319
:100050000C9485000C9485000C9485000C9485000C
:100060000C9485000C9485000000000024002700FB
:100070002A0000000000250028002B0004040404CE
:100080000404040402020202020203030303030342
:10009000010204081020408001020408102001021F
:1000A00004081020000000080002010000030407FB
:1000B0000000000000000000BC0411241FBECFEFB0
:1000C000D8E0DEBFCDBF11E0A0E0B1E0EAE1FEE0A4
:1000D00002C005900D92A632B107D9F722E0A6E240
:1000E000B1E001C01D92AD33B207E1F710E0CDE5FC
:1000F000D0E004C02197FE010E949D06CC35D107B7
:10010000C9F70E94F8040C940B070C940000CF92DE
:10011000DF92EF92FF920F931F93CF93DF936C01C7
:100120007A018B01C0E0D0E0CE15DF0589F0D8015F
:100130006D918D01D601ED91FC910190F081E02D42
:10014000C6010995892B11F47E0102C02196ECCFDE
:10015000C701DF91CF911F910F91FF90EF90DF903A
:10016000CF900895FC01918D828D981761F0828D5A
:10017000DF01A80FB11D5D968C91928D9F5F9F73DB
:10018000928F90E008958FEF9FEF0895FC01918D7D
:10019000828D981731F0828DE80FF11D858D90E0EA
:1001A00008958FEF9FEF0895FC01918D228D892F87
:1001B00090E0805C9F4F821B91098F73992708956F
:1001C00084E991E00E94D40021E0892B09F420E029
:1001D000822F0895FC01848DDF01A80FB11DA35A61
:1001E000BF4F2C91848D90E001968F739927848F57
:1001F000A689B7892C93A089B1898C9180648C934E
:10020000938D848D981306C00288F389E02D808138
:100210008F7D80830895EF92FF920F931F93CF936A
:10022000DF93EC0181E0888F9B8D8C8D981305C046
:10023000E889F989808185FD24C0F62E0B8D10E0B8
:100240000F5F1F4F0F731127E02E8C8DE8120CC02B
:100250000FB607FCFACFE889F989808185FFF5CFD1
:10026000CE010E94EA00F1CF8B8DFE01E80FF11D57
:10027000E35AFF4FF0820B8FEA89FB89808180620D
:1002800007C0EE89FF896083E889F98980818064ED
:10029000808381E090E0DF91CF911F910F91FF90DB
:1002A000EF900895CF93DF93EC01888D8823C9F0F8
:1002B000EA89FB89808185FD05C0A889B9898C916F
:1002C00086FD0FC00FB607FCF5CF808185FFF2CF0A
:1002D000A889B9898C9185FFEDCFCE010E94EA00F3
:1002E000E7CFDF91CF91089580E090E0892B29F04E
:1002F0000E94E00081110C940000089590E0FC0140
:10030000EC55FF4F3491FC01E057FF4F2491FC0165
:10031000E458FF4FE491EE2309F43BC0332339F155
:10032000333091F038F43130A9F0323001F584B532
:100330008F7D12C0373091F03830A1F03430B9F4ED
:10034000809180008F7D03C0809180008F778093A3
:1003500080000DC084B58F7784BD09C08091B00046
:100360008F7703C08091B0008F7D8093B000F0E064
:10037000EE0FFF1FEE58FF4FA591B4918FB7F89481
:10038000EC91611103C020952E2301C02E2B2C93DC
:100390008FBF08958E3008F08E50877080648093F0
:1003A0007C0080917A00806480937A0080917A004A
:1003B00086FDFCCF809178002091790090E0922B0F
:1003C00008953FB7F89480914D0190914E01A0910E
:1003D0004F01B091500126B5A89B05C02F3F19F0E1
:1003E0000196A11DB11D3FBFBA2FA92F982F8827B5
:1003F000820F911DA11DB11DBC01CD0142E0660F10
:10040000771F881F991F4A95D1F708958F929F9261
:10041000AF92BF92CF92DF92EF92FF926B017C017D
:100420000E94E1014B015C01C114D104E104F1041B
:10043000F1F00E94E101DC01CB0188199909AA09B8
:10044000BB09883E9340A105B10570F321E0C21AB3
:10045000D108E108F10888EE880E83E0981EA11CFF
:10046000B11CC114D104E104F10419F7DDCFFF90F0
:10047000EF90DF90CF90BF90AF909F908F900895B6
:10048000CF92DF92EF92FF92CF93DF93EC01603235
:1004900082E078070CF03DC077FD06C0653B710532
:1004A0002CF064EB70E002C060E070E0898128E825
:1004B00030E06901C81AD10887FDD394CC0CDD1C4B
:1004C000CC0CDD1C0D2C000CEE08FF088A8128E501
:1004D00032E0281B310987FD3395220F331F220F8D
:1004E000331FC901330FAA0BBB0B9C01AD012C19A3
:1004F0003D094E095F09DB010E94F40624EB30E060
:1005000040E050E00E94CA06C20ED31EE41EF51E53
:10051000B60188818C3080F5998148E850E0491B0C
:10052000510997FD5395440F551F440F551F6417EC
:10053000750784F09A8128E532E0291B310997FD7F
:100540003395220F331F220F331FAB0126173707B6
:100550000CF4A90142505109440F551F2FB7F894CC
:1005600090E0FC01EE0FFF1F8E0F9F1FFC01E85D66
:10057000FE4F528341832FBFDF91CF91FF90EF90C9
:10058000DF90CF900895CF93DF93DC018C918C3076
:1005900008F06DC09B013327F901E057FF4F8491AC
:1005A000F901E458FF4F2491222399F030E0220F03
:1005B000331FF901E859FF4FC591D491F901EE5865
:1005C000FF4F259134919FB7F894E881E82BE88399
:1005D0009FBF8C91E82FF0E09F01220F331FE20FA5
:1005E000F31FE85DFE4F6F739081907C692B6083F1
:1005F00011961C92119712961C9212976CE00E9411
:100600008A069CE0899FB001112440E050E09A01E5
:10061000260F371FF901EE0FFF1F2E0F3F1FF901A5
:10062000E85DFE4F908196FD16C04F5F5F4F4C30E6
:10063000510569F781110FC01092800082E080930C
:1006400081001092850010928400B19A80916F0011
:10065000826080936F00EC91F0E0CF01880F991FCA
:10066000E80FF91FE85DFE4F8081806480838C91E4
:10067000DF91CF910895FC01909127019C30A0F467
:1006800081E0890F809327019083892F90E0FC01FE
:10069000EE0FFF1F8E0F9F1FFC01E85DFE4F88EBE2
:1006A0009BE09283818308958FEF808308950E9459
:1006B000A3061F920F920FB60F9211242F933F9310
:1006C0004F935F936F937F938F939F93AF93BF935A
:1006D000EF93FF9384E991E00E94EA00FF91EF918C
:1006E000BF91AF919F918F917F916F915F914F914A
:1006F0003F912F910F900FBE0F901F9018951F9252
:100700000F920FB60F9211242F938F939F93EF9315
:10071000FF93E091A401F091A5018081E091AA01ED
:10072000F091AB0182FD12C090818091AD018F5F8D
:100730008F732091AE01821751F0E091AD01F0E08E
:10074000EC56FE4F958F8093AD0101C08081FF91E3
:10075000EF919F918F912F910F900FBE0F901F904F
:1007600018951F920F920FB60F9211242F933F935B
:100770008F939F93AF93BF938091510190915201BA
:10078000A0915301B091540130914C0123E0230F0B
:100790002D3720F40196A11DB11D05C026E8230FB9
:1007A0000296A11DB11D20934C018093510190939D
:1007B0005201A0935301B093540180914D01909147
:1007C0004E01A0914F01B09150010196A11DB11DA4
:1007D00080934D0190934E01A0934F01B09350012F
:1007E000BF91AF919F918F913F912F910F900FBE2D
:1007F0000F901F9018951F920F920FB60F92112411
:100800002F933F934F935F936F937F938F939F9318
:10081000AF93BF93EF93FF938091260187FF05C0AD
:1008200010928500109284001BC020912601022E98
:10083000000C330B8091270190E02817390784F4CE
:1008400080912601082E000C990BFC01EE0FFF1F72
:100850008E0F9F1FFC01E85DFE4F808186FD15C055
:10086000809126018F5F8093260120912601022E20
:10087000000C330B8091270190E028173907C4F44E
:10088000809126018C3064F113C080912601082EDE
:10089000000C990BFC01EE0FFF1F8E0F9F1FFC0138
:1008A000E85DFE4F808160E08F730E947E01D8CFAB
:1008B0008091840090918500049680349C4918F4BE
:1008C00080E49CE905C080918400909185000496A5
:1008D00090938900809388008FEF809326013BC01E
:1008E000209184003091850080912601082E000C13
:1008F000990BFC01EE0FFF1F8E0F9F1FFC01E85D9F
:10090000FE4F81819281820F931F90938900809383
:10091000880080912601082E000C990BFC01EE0F37
:10092000FF1F8E0F9F1FFC01E85DFE4F808186FF39
:1009300012C080912601082E000C990BFC01EE0FCD
:10094000FF1F8E0F9F1FFC01E85DFE4F808161E05D
:100950008F730E947E01FF91EF91BF91AF919F91A4
:100960008F917F916F915F914F913F912F910F9058
:100970000FBE0F901F901895E4E9F1E013821282E8
:1009800088EE93E0A0E0B0E084839583A683B783EC
:1009900088E091E09183808385EC90E0958784875F
:1009A00084EC90E09787868780EC90E0918B808B39
:1009B00081EC90E0938B828B82EC90E0958B848B22
:1009C00086EC90E0978B868B118E128E138E148E90
:1009D0008AE392E00E943B0387E392E00E943B039C
:1009E00084E392E00E943B0381E392E00C943B039A
:1009F000CF93DF93CDB7DEB72C970FB6F894DEBF59
:100A00000FBECDBF789484B5826084BD84B581600B
:100A100084BD85B5826085BD85B5816085BD8091C9
:100A20006E00816080936E00109281008091810041
:100A30008260809381008091810081608093810039
:100A4000809180008160809380008091B1008460FB
:100A50008093B1008091B00081608093B00080915C
:100A60007A00846080937A0080917A00826080931B
:100A70007A0080917A00816080937A0080917A0078
:100A8000806880937A001092C100109288011092C1
:100A9000890110928A0110928B01109256011092D6
:100AA0005701109258011092590160ED77E080E0F3
:100AB00090E00E94060284E991E090938701809380
:100AC0008601E091A401F091A50182E08083E0918C
:100AD000A001F091A1011082E091A201F091A30187
:100AE00080E180831092AC01E091A801F091A9010E
:100AF00086E08083E091A601F091A701808180616A
:100B00008083E091A601F091A701808188608083B5
:100B1000E091A601F091A701808180688083E09137
:100B2000A601F091A70180818F7D80832FB7F89473
:100B30008091510190915201A0915301B0915401C3
:100B40002FBF40915601509157016091580170910B
:100B50005901841B950BA60BB70B8197A105B10515
:100B600038F463E070E080E090E00E940602DECF9F
:100B70002FB7F8948091510190915201A0915301A7
:100B8000B09154012FBF8093560190935701A093C9
:100B90005801B09359018091860190918701DC0141
:100BA000ED91FC910280F381E02D41E150E064E1A0
:100BB00071E009956AE070E080E090E00E94060232
:100BC00081E080935A0168E070E08AE392E00E943D
:100BD000C30269E070E087E392E00E94C3026AE02A
:100BE00070E084E392E00E94C3026BE070E081E376
:100BF00092E00E94C302CC24CA9483E0D82EE12C58
:100C0000F12C8EE00E94CA013C01909393018093E5
:100C100092018FE00E94CA014C0190939101809350
:100C2000900180E10E94CA015C0190938F01809342
:100C30008E0181E10E94CA018C0190938D01809305
:100C40008C0180913A0290913B02A0913C028983F1
:100C50009A83AB8324EB30E0D3010E949606A70170
:100C600096010E94CA06B901CE0101960E94400277
:100C70008091370290913802A09139028C839D8334
:100C8000AE8326E330E0D4010E949606A7019601C8
:100C90000E94CA06CA01B90162587F4F8F4F9F4F09
:100CA000CE0104960E944002809134029091350258
:100CB000A09136028F839887A9872AE930E0D50171
:100CC0000E949606A70196010E94CA06B901CE01AC
:100CD00007960E9440028091310290913202A091C9
:100CE00033028A879B87AC8724E630E0D8010E94D4
:100CF0009606A70196010E94CA06CA01B901635D62
:100D00007F4F8F4F9F4FCE010A960E9440020E9454
:100D1000740177CF991B79E004C0991F961708F0EA
:100D2000961B881F7A95C9F7809508950E94FC0646
:100D3000B7FF0895821B930B0895EE0FFF1F0590D8
:100D4000F491E02D099481E090E0F8940C940B0765
:100D5000A1E21A2EAA1BBB1BFD010DC0AA1FBB1FBF
:100D6000EE1FFF1FA217B307E407F50720F0A21B31
:100D7000B30BE40BF50B661F771F881F991F1A949E
:100D800069F760957095809590959B01AC01BD01C8
:100D9000CF010895052E97FB1EF400940E94E106F2
:100DA00057FD07D00E94A80607FC03D04EF40C9410
:100DB000E10650954095309521953F4F4F4F5F4F3D
:100DC000089590958095709561957F4F8F4F9F4FB7
:100DD00008950E94FC06A59F900DB49F900DA49FBE
:100DE000800D911D11240895B7FF0C94E9060E940F
:100DF000E906821B930B0895A29FB001B39FC00127
:100E0000A39F700D811D1124911DB29F700D811D36
:0A0E10001124911D0895F894FFCFFE
:100E1A0001000000000000000B018700D400B200AE
:100E2A00C6005201564D4450565F317C315F564DD3
:060E3A004450560D0A00B1
:00000001FF
